{
  "contractName": "CreditContract",
  "abi": [
    {
      "inputs": [
        {
          "internalType": "address payable",
          "name": "_borrower",
          "type": "address"
        },
        {
          "internalType": "uint256",
          "name": "_loanAmount",
          "type": "uint256"
        },
        {
          "internalType": "uint256",
          "name": "_interestRate",
          "type": "uint256"
        },
        {
          "internalType": "uint256",
          "name": "_loanDueDate",
          "type": "uint256"
        }
      ],
      "stateMutability": "nonpayable",
      "type": "constructor"
    },
    {
      "inputs": [],
      "name": "borrower",
      "outputs": [
        {
          "internalType": "address payable",
          "name": "",
          "type": "address"
        }
      ],
      "stateMutability": "view",
      "type": "function",
      "constant": true
    },
    {
      "inputs": [],
      "name": "collateralAmount",
      "outputs": [
        {
          "internalType": "uint256",
          "name": "",
          "type": "uint256"
        }
      ],
      "stateMutability": "view",
      "type": "function",
      "constant": true
    },
    {
      "inputs": [],
      "name": "interestRate",
      "outputs": [
        {
          "internalType": "uint256",
          "name": "",
          "type": "uint256"
        }
      ],
      "stateMutability": "view",
      "type": "function",
      "constant": true
    },
    {
      "inputs": [],
      "name": "lender",
      "outputs": [
        {
          "internalType": "address payable",
          "name": "",
          "type": "address"
        }
      ],
      "stateMutability": "view",
      "type": "function",
      "constant": true
    },
    {
      "inputs": [],
      "name": "loanAmount",
      "outputs": [
        {
          "internalType": "uint256",
          "name": "",
          "type": "uint256"
        }
      ],
      "stateMutability": "view",
      "type": "function",
      "constant": true
    },
    {
      "inputs": [],
      "name": "loanDueDate",
      "outputs": [
        {
          "internalType": "uint256",
          "name": "",
          "type": "uint256"
        }
      ],
      "stateMutability": "view",
      "type": "function",
      "constant": true
    },
    {
      "inputs": [],
      "name": "loanRepaid",
      "outputs": [
        {
          "internalType": "bool",
          "name": "",
          "type": "bool"
        }
      ],
      "stateMutability": "view",
      "type": "function",
      "constant": true
    },
    {
      "inputs": [],
      "name": "depositCollateral",
      "outputs": [],
      "stateMutability": "payable",
      "type": "function",
      "payable": true
    },
    {
      "inputs": [],
      "name": "sendLoan",
      "outputs": [],
      "stateMutability": "payable",
      "type": "function",
      "payable": true
    },
    {
      "inputs": [],
      "name": "repayLoan",
      "outputs": [],
      "stateMutability": "payable",
      "type": "function",
      "payable": true
    },
    {
      "inputs": [],
      "name": "claimCollateral",
      "outputs": [],
      "stateMutability": "nonpayable",
      "type": "function"
    }
  ],
  "bytecode": "0x60806040523480156200001157600080fd5b506040516200121538038062001215833981810160405281019062000037919062000120565b336000806101000a81548173ffffffffffffffffffffffffffffffffffffffff021916908373ffffffffffffffffffffffffffffffffffffffff16021790555083600160006101000a81548173ffffffffffffffffffffffffffffffffffffffff021916908373ffffffffffffffffffffffffffffffffffffffff1602179055508260028190555081600381905550806004819055506000600660006101000a81548160ff02191690831515021790555050505050620001fe565b6000815190506200010381620001ca565b92915050565b6000815190506200011a81620001e4565b92915050565b600080600080608085870312156200013757600080fd5b60006200014787828801620000f2565b94505060206200015a8782880162000109565b93505060406200016d8782880162000109565b9250506060620001808782880162000109565b91505092959194509250565b60006200019982620001a0565b9050919050565b600073ffffffffffffffffffffffffffffffffffffffff82169050919050565b6000819050919050565b620001d5816200018c565b8114620001e157600080fd5b50565b620001ef81620001c0565b8114620001fb57600080fd5b50565b611007806200020e6000396000f3fe60806040526004361061009c5760003560e01c80637fcf16ca116100645780637fcf16ca1461014357806392d09ceb1461014d5780639d585f7f14610178578063bcead63e146101a3578063bff1d2e3146101ce578063f966ade7146101f95761009c565b80636f0b0c1c146100a15780636f758140146100b85780637c3a00fd146100c25780637d153e83146100ed5780637df1f1b914610118575b600080fd5b3480156100ad57600080fd5b506100b6610203565b005b6100c0610390565b005b3480156100ce57600080fd5b506100d761046c565b6040516100e49190610e1e565b60405180910390f35b3480156100f957600080fd5b50610102610472565b60405161010f9190610e1e565b60405180910390f35b34801561012457600080fd5b5061012d610478565b60405161013a9190610c88565b60405180910390f35b61014b61049e565b005b34801561015957600080fd5b50610162610620565b60405161016f9190610e1e565b60405180910390f35b34801561018457600080fd5b5061018d610626565b60405161019a9190610e1e565b60405180910390f35b3480156101af57600080fd5b506101b861062c565b6040516101c59190610c88565b60405180910390f35b3480156101da57600080fd5b506101e3610650565b6040516101f09190610ca3565b60405180910390f35b610201610663565b005b60008054906101000a900473ffffffffffffffffffffffffffffffffffffffff1673ffffffffffffffffffffffffffffffffffffffff163373ffffffffffffffffffffffffffffffffffffffff1614610291576040517f08c379a000000000000000000000000000000000000000000000000000000000815260040161028890610dbe565b60405180910390fd5b60045442116102d5576040517f08c379a00000000000000000000000000000000000000000000000000000000081526004016102cc90610d1e565b60405180910390fd5b600660009054906101000a900460ff1615610325576040517f08c379a000000000000000000000000000000000000000000000000000000000815260040161031c90610d5e565b60405180910390fd5b60008054906101000a900473ffffffffffffffffffffffffffffffffffffffff1673ffffffffffffffffffffffffffffffffffffffff166108fc6005549081150290604051600060405180830381858888f1935050505015801561038d573d6000803e3d6000fd5b50565b600160009054906101000a900473ffffffffffffffffffffffffffffffffffffffff1673ffffffffffffffffffffffffffffffffffffffff163373ffffffffffffffffffffffffffffffffffffffff1614610420576040517f08c379a000000000000000000000000000000000000000000000000000000000815260040161041790610d3e565b60405180910390fd5b60003411610463576040517f08c379a000000000000000000000000000000000000000000000000000000000815260040161045a90610cde565b60405180910390fd5b34600581905550565b60035481565b60045481565b600160009054906101000a900473ffffffffffffffffffffffffffffffffffffffff1681565b60008054906101000a900473ffffffffffffffffffffffffffffffffffffffff1673ffffffffffffffffffffffffffffffffffffffff163373ffffffffffffffffffffffffffffffffffffffff161461052c576040517f08c379a000000000000000000000000000000000000000000000000000000000815260040161052390610dde565b60405180910390fd5b600060055411610571576040517f08c379a000000000000000000000000000000000000000000000000000000000815260040161056890610cbe565b60405180910390fd5b60025434146105b5576040517f08c379a00000000000000000000000000000000000000000000000000000000081526004016105ac90610dfe565b60405180910390fd5b600160009054906101000a900473ffffffffffffffffffffffffffffffffffffffff1673ffffffffffffffffffffffffffffffffffffffff166108fc349081150290604051600060405180830381858888f1935050505015801561061d573d6000803e3d6000fd5b50565b60055481565b60025481565b60008054906101000a900473ffffffffffffffffffffffffffffffffffffffff1681565b600660009054906101000a900460ff1681565b600160009054906101000a900473ffffffffffffffffffffffffffffffffffffffff1673ffffffffffffffffffffffffffffffffffffffff163373ffffffffffffffffffffffffffffffffffffffff16146106f3576040517f08c379a00000000000000000000000000000000000000000000000000000000081526004016106ea90610cfe565b60405180910390fd5b600454421115610738576040517f08c379a000000000000000000000000000000000000000000000000000000000815260040161072f90610d9e565b60405180910390fd5b606460035460025461074a9190610ed1565b6107549190610ea0565b6002546107619190610e4a565b34146107a2576040517f08c379a000000000000000000000000000000000000000000000000000000000815260040161079990610d7e565b60405180910390fd5b6001600660006101000a81548160ff02191690831515021790555060008054906101000a900473ffffffffffffffffffffffffffffffffffffffff1673ffffffffffffffffffffffffffffffffffffffff166108fc349081150290604051600060405180830381858888f19350505050158015610823573d6000803e3d6000fd5b50600160009054906101000a900473ffffffffffffffffffffffffffffffffffffffff1673ffffffffffffffffffffffffffffffffffffffff166108fc6005549081150290604051600060405180830381858888f1935050505015801561088e573d6000803e3d6000fd5b50565b61089a81610f2b565b82525050565b6108a981610f3d565b82525050565b60006108bc601f83610e39565b91507f4b6f6c61746572616c206d6f7261206269746920706f737461766c6a656e2e006000830152602082019050919050565b60006108fc602983610e39565b91507f4d6f7261746520706f6c6f7a697469206e656b6920697a6e6f73206b616f206b60008301527f6f6c61746572616c2e00000000000000000000000000000000000000000000006020830152604082019050919050565b6000610962602483610e39565b91507f53616d6f207a616a6d6f7072696d6163206d6f7a652076726174697469207a6160008301527f6a616d2e000000000000000000000000000000000000000000000000000000006020830152604082019050919050565b60006109c8601683610e39565b91507f5a616a616d206a6f73206e696a6520646f7370696f2e000000000000000000006000830152602082019050919050565b6000610a08602983610e39565b91507f53616d6f207a616a6d6f7072696d6163206d6f7a6520706f6c6f7a697469206b60008301527f6f6c61746572616c2e00000000000000000000000000000000000000000000006020830152604082019050919050565b6000610a6e601483610e39565b91507f5a616a616d206a65207665632076726163656e2e0000000000000000000000006000830152602082019050919050565b6000610aae602383610e39565b91507f4d6f7261746520706c61746974692070756e20697a6e6f732073206b616d617460008301527f6f6d2e00000000000000000000000000000000000000000000000000000000006020830152604082019050919050565b6000610b14602083610e39565b91507f526f6b207a612076726163616e6a65207a616a6d61206a652070726f73616f2e6000830152602082019050919050565b6000610b54602b83610e39565b91507f53616d6f207a616a6d6f6461766163206d6f7a65207a616874696a657661746960008301527f206b6f6c61746572616c2e0000000000000000000000000000000000000000006020830152604082019050919050565b6000610bba602383610e39565b91507f53616d6f207a616a6d6f6461766163206d6f7a6520706f736c617469207a616a60008301527f616d2e00000000000000000000000000000000000000000000000000000000006020830152604082019050919050565b6000610c20602183610e39565b91507f4d6f7261746520706f736c61746920746f63616e20697a6e6f73207a616a6d6160008301527f2e000000000000000000000000000000000000000000000000000000000000006020830152604082019050919050565b610c8281610f69565b82525050565b6000602082019050610c9d6000830184610891565b92915050565b6000602082019050610cb860008301846108a0565b92915050565b60006020820190508181036000830152610cd7816108af565b9050919050565b60006020820190508181036000830152610cf7816108ef565b9050919050565b60006020820190508181036000830152610d1781610955565b9050919050565b60006020820190508181036000830152610d37816109bb565b9050919050565b60006020820190508181036000830152610d57816109fb565b9050919050565b60006020820190508181036000830152610d7781610a61565b9050919050565b60006020820190508181036000830152610d9781610aa1565b9050919050565b60006020820190508181036000830152610db781610b07565b9050919050565b60006020820190508181036000830152610dd781610b47565b9050919050565b60006020820190508181036000830152610df781610bad565b9050919050565b60006020820190508181036000830152610e1781610c13565b9050919050565b6000602082019050610e336000830184610c79565b92915050565b600082825260208201905092915050565b6000610e5582610f69565b9150610e6083610f69565b9250827fffffffffffffffffffffffffffffffffffffffffffffffffffffffffffffffff03821115610e9557610e94610f73565b5b828201905092915050565b6000610eab82610f69565b9150610eb683610f69565b925082610ec657610ec5610fa2565b5b828204905092915050565b6000610edc82610f69565b9150610ee783610f69565b9250817fffffffffffffffffffffffffffffffffffffffffffffffffffffffffffffffff0483118215151615610f2057610f1f610f73565b5b828202905092915050565b6000610f3682610f49565b9050919050565b60008115159050919050565b600073ffffffffffffffffffffffffffffffffffffffff82169050919050565b6000819050919050565b7f4e487b7100000000000000000000000000000000000000000000000000000000600052601160045260246000fd5b7f4e487b7100000000000000000000000000000000000000000000000000000000600052601260045260246000fdfea26469706673582212205708b2dd6e4da7a7b95ea41e7a79633f2064fa7999cb154bc2775286789fd49464736f6c63430008000033",
  "immutableReferences": {},
  "source": "pragma solidity ^0.8.0;\r\n\r\ncontract CreditContract {\r\n    address payable public lender;\r\n    address payable public borrower;\r\n    uint public loanAmount;\r\n    uint public interestRate;\r\n    uint public loanDueDate;\r\n    uint public collateralAmount;\r\n    bool public loanRepaid;\r\n\r\n    constructor(address payable _borrower, uint _loanAmount, uint _interestRate, uint _loanDueDate) {\r\n        lender = payable(msg.sender);\r\n        borrower = _borrower;\r\n        loanAmount = _loanAmount;\r\n        interestRate = _interestRate;\r\n        loanDueDate = _loanDueDate;\r\n        loanRepaid = false;\r\n    }\r\n\r\n    // Zajmoprimac postavlja kolateral\r\n    function depositCollateral() public payable {\r\n        require(msg.sender == borrower, \"Samo zajmoprimac moze poloziti kolateral.\");\r\n        require(msg.value > 0, \"Morate poloziti neki iznos kao kolateral.\");\r\n        collateralAmount = msg.value;\r\n    }\r\n\r\n    // Zajmodavac salje zajam\r\n    function sendLoan() public payable {\r\n    require(msg.sender == lender, \"Samo zajmodavac moze poslati zajam.\");\r\n    require(collateralAmount > 0, \"Kolateral mora biti postavljen.\");\r\n    require(msg.value == loanAmount, \"Morate poslati tocan iznos zajma.\");\r\n    borrower.transfer(msg.value);\r\n}\r\n\r\n    // Zajmoprimac vraca zajam\r\n    function repayLoan() public payable {\r\n        require(msg.sender == borrower, \"Samo zajmoprimac moze vratiti zajam.\");\r\n        require(block.timestamp <= loanDueDate, \"Rok za vracanje zajma je prosao.\");\r\n        require(msg.value == loanAmount + (loanAmount * interestRate / 100), \"Morate platiti pun iznos s kamatom.\");\r\n        loanRepaid = true;\r\n        lender.transfer(msg.value); // Placanje zajmodavcu\r\n        payable(borrower).transfer(collateralAmount); // Povrat kolaterala zajmoprimcu\r\n    }\r\n\r\n    // Ako zajam nije vracen na vrijeme, zajmodavac zadrzava kolateral\r\n    function claimCollateral() public {\r\n        require(msg.sender == lender, \"Samo zajmodavac moze zahtijevati kolateral.\");\r\n        require(block.timestamp > loanDueDate, \"Zajam jos nije dospio.\");\r\n        require(!loanRepaid, \"Zajam je vec vracen.\");\r\n        lender.transfer(collateralAmount); // Zajmodavac zadrzava kolateral\r\n    }\r\n}\r\n",
  "sourcePath": "C:\\Users\\matej\\OneDrive\\Radna povrina\\BlockChain\\CreditContract\\contracts\\CreditContract.sol",
  "compiler": {
    "name": "solc",
    "version": "0.8.0+commit.c7dfd78e.Emscripten.clang"
  },
  "schemaVersion": "3.4.16",
  "updatedAt": "2024-09-14T18:16:00.269Z",
  "networkType": "ethereum",
  "devdoc": {
    "kind": "dev",
    "methods": {},
    "version": 1
  },
  "userdoc": {
    "kind": "user",
    "methods": {},
    "version": 1
  }
}